:060000000A128A11142906
:10000800F000030EF1000B181E210B192621710EAA
:080018008300F00E700E0900D8
:100200008A010A140F3982073F3406345B344F34B5
:1002100066346D347D3407347F346F3477347C3406
:1002200039345E34793471342C21332147215F21F4
:1002300050217208850000218700192903138312B9
:10024000061CF20A861CF2030B1008005B21F30A5D
:100250007308002188000800031383160F138F1200
:100260000F160F1408000317831689018801031362
:1002700083160330860085018701880181131514D8
:100280009514031383128501870188010800031365
:100290008316161496140313831206080B10080015
:1002A00003138316811281110115811401140313A4
:1002B00083125B210800863081000B1108008B1728
:0802C0008B150B108B160800D2
:04400E00C430FF3F7C
:00000001FF
