:020000040000FA
:060000000A128A110E280D
:10000800FE00030EF5000408F6000A08F7000A12BD
:100018008A11A3280A128A11112883120313B00126
:10002800B10183010A128A111928831603130F17C5
:100038008F120F120F1483160317890188010330DA
:10004800831603138600850187018801811315141F
:10005800951483120313850186018701880183168D
:1000680003131614961481128111011181140114BD
:1000780064308312031381000B118B178B158B16B9
:10008800B001310885006430A0000030A1003108BB
:10009800A900AA012908A2002A08A3000A128A11A5
:1000A80014210A128A11831203132008AB002B08AB
:1000B800AF006430A0000030A1003108A900AA01F7
:1000C8002908A2002A08A3000A128A117D210A120F
:1000D8008A11831203132008AB002B08AC000A30E6
:1000E800A0000030A1002C08A900AA012908A2003C
:1000F8002A08A3000A128A1114210A128A118312EB
:1001080003132008AB002B08AE000A30A000003013
:10011800A1002C08A900AA012908A2002A08A30006
:100128000A128A117D210A128A11831203132008E8
:10013800AB002B08AD0045280A128A110E280B1CAB
:10014800A628A728B828831203130618AC28AD28B8
:10015800B1280130F3007308B1078618B428B52810
:10016800B7280130B1020B100B1DBB28BC280B2986
:100178000130F3007308831203138707643081008A
:100188000B110611861106128801F828061586112A
:1001980006122F080A128A11D8210A128A1183120C
:1001A80003138800B001B00A0B2906118615061240
:1001B8002E080A128A11D8210A128A1183120313EF
:1001C80088000230F3007308B0000B29061186116D
:1001D80006162D080A128A11D8210A128A118312CA
:1001E80003138800B0010B293008F300F4017408E8
:1001F800003A031900290B297308003A0319CA2881
:10020800013A0319D928033A0319EA280B29770870
:100218008A0076088400750E8300FE0E7E0E0900A3
:1002280083120313A601A11F1A291B292229A00939
:10023800A109A00A0319A10AA601A60AA31F252934
:1002480026292F29A209A309A20A0319A30A013002
:10025800A4002408A606A701A80120082104031960
:10026800362937296E29A501A50A45290130031029
:10027800A00DA10DFF3E031D3B290130A400240859
:10028800A507A11F482949293A2901300310A70DBC
:10029800A80DFF3E031D4A2921082302031D5629E4
:1002A80020082202031C59295A2961292008A20280
:1002B8002108031CA303A302271401300310A10C77
:1002C800A00CFF3E031D62290130A502031D6D2904
:1002D8006E29492926080319722973297829A7093B
:1002E800A809A70A0319A80A2808A1002708A00036
:1002F800080083120313A601A31F832984298B29CD
:10030800A209A309A20A0319A30AA601A60AA11F02
:100318008E298F299429A009A109A00A0319A10AE5
:1003280020082104031999299A29C929A501A50A90
:10033800A82901300310A00DA10DFF3E031D9E2921
:100348000130A4002408A507A11FAB29AC299D29C9
:1003580021082302031DB22920082202031CB52903
:10036800B629BC292008A2022108031CA303A30262
:1003780001300310A10CA00CFF3E031DBD29013064
:10038800A502031DC829C929AC2926080319CD29A6
:10039800CE29D329A209A309A20A0319A30A23086B
:1003A800A1002208A0000800F200EE293F30162A1A
:1003B8000630162A5B30162A4F30162A6630162A5F
:1003C8006D30162A7D30162A0730162A7F30162AF5
:1003D8006F30162A7208F000F1017108003A03190B
:1003E800F629162A7008003A0319DA29013A03197E
:1003F800DC29033A0319DE29013A0319E029073AEF
:100408000319E229013A0319E429033A0319E629F1
:10041800013A0319E8290F3A0319EA29013A03199D
:06042800EC29162A080071
:04400E00C430FF3F7C
:00000001FF
