:060000000A128A11142906
:10000800F000030EF1000B1829210B1933210C18ED
:0C0018007721710E8300F00E700E0900BD
:100200008A010A140F3982073F3406345B344F34B5
:1002100066346D347D3407347F346F3477347C3406
:1002200039345E34793471346A2271228922B222DF
:1002300093229E2220140A30B700B800B9004B2246
:100240000030BB000130BC00BD002118AC21DC2116
:10025000252903138312061C2114861CA114061DD4
:1002600021150B10080003138312A6228801201801
:100270004729A0184D2920195329A0195929201AB6
:100280005F29A01A6529201B6B29A01B712927084B
:10029000850008142010A014080026088500881482
:1002A000A010201508002808850008152011A015A9
:1002B00008002B0885008815A011201608002908C1
:1002C000850008162012A01608002C088500881644
:1002D000A012201708002A08850008172013A0176D
:1002E00008002D0885008817A013201408000313A8
:1002F0008312AA22AE03031100302E02031D8629A9
:10030000BB0A3B1831083B1C3408AE00AF03031195
:1003100000302F02031D9229BC0A3C1832083C1CF5
:100320003508AF00B003031100303002031D9E29D1
:10033000BD0A3D1833083D1C3608B00003113E1CB1
:10034000AB2934083F02031DA729BF0AAB29340893
:100350003607B2003E10080003138312A20A0311ED
:1003600005302202031DB6290030A200211008002A
:1003700003138312A30A031115302302031DC2299C
:100380000A30A300A110080003138312A303031172
:1003900009302302031DCE291430A30021110800C7
:1003A000A501A4010310A4000A30A50AA4020318A1
:1003B000D529A503A40708000313831203110030F5
:1003C00022020319212203110130220203192A22D9
:1003D00003110230220203193022031103302202DA
:1003E0000319372203110430220203193F220800A7
:1003F0002E08D02125080021A80024080021AB00E8
:100400002F08D02125080021A90024080021AC00D4
:100410003008D02125080021AA0024080021AD00C1
:100420000800A300A118B8212119C4212308BA008B
:10043000D02125080021A70024080021A600F821CA
:100440000800861106128612A1102111A701A6012B
:10045000F82108008615370811223A08B70008006D
:1004600086110616380811223A08B80008008611CD
:1004700006128616390811223A08B90008008615B6
:1004800006167730A7003930A600F821A1184B22B4
:100490002119632208003E143708B400AE00B200F0
:1004A000AF003808B5003908B60035083607B10086
:1004B00034083507B300B0000030A2000A30B7009E
:1004C000B800B90008000A30B700B800B900003021
:1004D000A2000800031383160F178F120F120F14B8
:1004E0000800031783168901880103138316073058
:1004F000860085018701880181131514951415154F
:100500000313831285018611061286128701880162
:10051000080003138316161496141615031383127A
:1005200006080B10080003138316811281110111B4
:100530008110011403138312A622080003138312EF
:100540009016101290101014AA2208007D3081001D
:100550000B11080003138312DC308E000B308F0068
:100560000C1008008B178B150B108B160C100C142D
:040570000B1708005D
:04400E00C430FF3F7C
:00000001FF
