:020000040000FA
:060000000A128A110E280D
:10000800FE00030EF4000408F5000A08F6000A12C0
:100018008A1126280A128A1111280A128A113B22EB
:100028000A128A11FD00A001A101A201A301A401E5
:10003800F701F801F901FA01FB01FC0183010A1239
:100048008A11BA29831203130C1F2B282C28AC28D9
:1000580085281E08F1000310710C7C3E95001F08CE
:10006800C33904389F00A4281E08F1000310710C3E
:100078007C3E9B001F08C33908389F00A4281E082F
:100088007C3E0A128A1123210A128A11F100710892
:10009800FC00831203131F08C3390C389F00A428DF
:1000A8001E087C3E0A128A1123210A128A11F100C5
:1000B8007108FB00831203131F08C33910389F000F
:1000C800A4281E087C3E0A128A1123210A128A11CA
:1000D800F1007108FA00831203131F08C33914389A
:1000E8009F00A4281E087C3E0A128A1123210A12A6
:1000F8008A11F1007108FD00C330831203139F05B4
:10010800A4281F0CF100710C0F39F200F3017308D9
:10011800003A03199028A4287208003A03192D28D8
:10012800013A03193828033A03194328013A0319F5
:100138005428073A03196528013A03197628A42890
:100148002130F100F10BA628831203130C139F141E
:100158000B1DAF28B0280329EA3081002303031DB3
:10016800B628B728BC280130F1007108F907022920
:100178002203031DC028C128C6280130F1007108D8
:10018800F80702292103031DCA28CB28D0280130EB
:10019800F1007108F70702292003031DD428D52888
:1001A800DA280130F1007108A407022979087C06D1
:1001B800031DDF28E028E4280810A301F90102291B
:1001C80078087B06031DE928EA28EE288810A20192
:1001D800F801022977087A06031DF328F428F8287D
:1001E8000811A101F701022924087D06031DFD2835
:1001F800FE2802298811A001A40102290B110C1C58
:10020800062907291A29C0308E0063308F007C0820
:100218008600A301A30AA201A20AA101A10AA001C2
:10022800A00A08148814081588150C1076088A0086
:1002380075088400740E8300FE0E7E0E0900F0001F
:1002480013307002031829292A292C290230B929C8
:10025800283070020318312932293A2913307002E4
:10026800031C372938293A290330B9293D3070024F
:1002780003183F294029482928307002031C4529C2
:10028800462948290530B9295230700203184D29EA
:100298004E2956293D307002031C532954295629EA
:1002A8000630B9296730700203185B295C29642974
:1002B80052307002031C6129622964290730B92968
:1002C80083307002031869296A297229673070021D
:1002D800031C6F29702972290830B92998307002D7
:1002E800031877297829802983307002031C7D2917
:1002F8007E2980290930B929AD3070020318852973
:1003080086298E2998307002031C8B298C298E2906
:100318000A30B929C23070020318932994299C29FC
:10032800AD307002031C99299A299C290B30B929F0
:10033800D73070020318A129A229AA29C230700255
:10034800031CA729A829AA290C30B929EC30700266
:100358000318AF29B029B829D7307002031CB52972
:10036800B629B8290E30B9290F3008007030831625
:1003780003138F040F1483160317890108148814B4
:1003880008158815081688167F308316031385000C
:1003980086018701880101308900831203138501D2
:1003A80086018701880189011F083F3980389F002D
:1003B8001F11831603139F121F129F138312031317
:1003C8001F14203083120313A500A50BE929000090
:1003D800831603130715FA3092003F308312031374
:1003E80097051708F0390C3897000F309500CF3073
:1003F8009705831603138714831203131D08F03916
:100408000C389D000F309B009D1283160313811238
:100418008111F8308105EA308312031381000B1132
:10042800C0308E0063308F00CF30900590101014CC
:100438000C108C100330920412158C1C242A252AC7
:10044800212A8C1083160313071187108B160C149E
:10045800831203130C13831603130C170B178B1734
:10046800831203139F14372A0A128A110E282D3477
:04400E00D420FF3F7C
:00000001FF
