:060000000A128A11142906
:10000800F000030EF1000B191E210C1836218C1874
:0C0018003B21710E8300F00E700E0900F9
:100200008A010A140F3982073F3406345B344F34B5
:1002100066346D347D3407347F346F3477347C3406
:1002200039345E34793471344E215521932164215F
:100230006F2177212014402147211B2903138312AA
:1002400087218501081C342920182829A0182E2967
:100250002508850007142010A01408002408850034
:100260008714A010201408008501080003138312CE
:100270008B21A10A080003138312880A8C1008003E
:1002800021080F39A200210E0F39A300080022080F
:100290000021A40023080021A500080003138316F1
:1002A0000F178F120F120F140800031783168901FE
:1002B00088010313831685018701880103138312C4
:1002C00085018701880108000313831681128111BB
:1002D00001118110011403138312872108000313F5
:1002E000831290161012901010148B210800031323
:1002F00083121215121792161216921592140313E6
:100300008316F4309200031383128C1008007D30A2
:1003100081000B11080003138312DC308E000B30B8
:100320008F000C1008008B178B160C100C140B1779
:040330008C14080021
:04400E00C430FF3F7C
:00000001FF
