:020000040000FA
:060000000A128A110E280D
:10000800FE00030EF6000408F7000A08F8000A12BA
:100018008A11722B0A128A1111280A128A11E123F5
:100028000A128A11FA00F90183010A128A11F82AC0
:10003800F20072080319212822282D28073072029D
:100048000318272828282D283230F0007008F100DE
:10005800F62A07307202031C322833283E280D3056
:1000680072020318382839283E283330F000700807
:10007800F100F62A0D307202031C432844284F2849
:1000880013307202031849284A284F283430F000E8
:100098007008F100F62A13307202031C5428552800
:1000A80060281930720203185A285B2860283530F6
:1000B800F0007008F100F62A19307202031C652856
:1000C800662871281F30720203186B286C28712863
:1000D8003630F0007008F100F62A1F307202031C57
:1000E8007628772882282530720203187C287D28F4
:1000F80082283730F0007008F100F62A25307202A5
:10010800031C8728882893282B30720203188D280F
:100118008E2893283830F0007008F100F62A2B302A
:100128007202031C98289928A428313072020318F7
:100138009E289F28A4283930F0007008F100F62A7C
:1001480031307202031CA928AA28B5283730720258
:100158000318AF28B028B5283A30F0007008F1002D
:10016800F62A37307202031CBA28BB28C6283D304D
:1001780072020318C028C128C6283B30F000700856
:10018800F100F62A3D307202031CCB28CC28D72870
:10019800433072020318D128D228D7283C30F00007
:1001A8007008F100F62A43307202031CDC28DD28AF
:1001B800E828493072020318E228E328E8283D308D
:1001C800F0007008F100F62A49307202031CED288D
:1001D800EE28F9284F3072020318F328F428F9287A
:1001E8003E30F0007008F100F62A4F307202031C0E
:1001F800FE28FF280A295530720203180429052908
:100208000A293F30F0007008F100F62A55307202D2
:10021800031C0F2910291B295B30720203181529AA
:1002280016291B294030F0007008F100F62A5B30CF
:100238007202031C202921292C296130720203181B
:10024800262927292C294130F0007008F100F62AC8
:1002580061307202031C312932293D29673072024C
:100268000318372938293D294230F0007008F10079
:10027800F62A67307202031C422943294E296D3041
:1002880072020318482949294E294330F0007008A2
:10029800F100F62A6D307202031C532954295F2994
:1002A80073307202031859295A295F294430F00023
:1002B8007008F100F62A73307202031C642965295C
:1002C80070297930720203186A296B297029453020
:1002D800F0007008F100F62A79307202031C7529C3
:1002E800762981297F30720203187B297C2981298C
:1002F8004630F0007008F100F62A7F307202031CC5
:100308008629872992298530720203188C298D291C
:1003180092294730F0007008F100F62A8530720201
:10032800031C97299829A3298B30720203189D2949
:100338009E29A3294830F0007008F100F62A8B3076
:100348007202031CA829A929B42991307202031842
:10035800AE29AF29B4294930F0007008F100F62A17
:1003680091307202031CB929BA29C5299730720243
:100378000318BF29C029C5294A30F0007008F100C8
:10038800F62A97307202031CCA29CB29D6299D3038
:1003980072020318D029D129D6294B30F0007008F1
:1003A800F100F62A9D307202031CDB29DC29E729BB
:1003B800A33072020318E129E229E7294C30F00042
:1003C8007008F100F62AA3307202031CEC29ED290B
:1003D800F829A93072020318F229F329F8294D30B7
:1003E800F0007008F100F62AA9307202031CFD29FA
:1003F800FE29092AAF3072020318032A042A092A9F
:100408004E30F0007008F100F62AAF307202031C7B
:100418000E2A0F2A1A2AB53072020318142A152A2E
:100428001A2A4F30F0007008F100F62AB53072022F
:10043800031C1F2A202A2B2ABB3072020318252AE4
:10044800262A2B2A5030F0007008F100F62ABB301B
:100458007202031C302A312A3C2AC1307202031866
:10046800362A372A3C2A5130F0007008F100F62A63
:10047800C1307202031C412A422A4D2AC730720237
:100488000318472A482A4D2A5230F0007008F10014
:10049800F62AC7307202031C522A532A5E2ACD302C
:1004A80072020318582A592A5E2A5330F00070083D
:1004B800F100F62ACD307202031C632A642A6F2ADF
:1004C800D33072020318692A6A2A6F2A5430F0005E
:1004D8007008F100F62AD3307202031C742A752AB8
:1004E800802AD930720203187A2A7B2A802A55304A
:1004F800F0007008F100F62AD9307202031C852A30
:10050800862A912ADF30720203188B2A8C2A912AB4
:100518005630F0007008F100F62ADF307202031C32
:10052800962A972AA22AE530720203189C2A9D2A45
:10053800A22A5730F0007008F100F62AE53072025E
:10054800031CA72AA82AB32AEB3072020318AD2A83
:10055800AE2AB32A5830F0007008F100F62AEB30C2
:100568007202031CB82AB92AC42AF130720203188D
:10057800BE2ABF2AC42A5930F0007008F100F62AB2
:10058800F1307202031CC92ACA2AD52AF73072022E
:100598000318CF2AD02AD52A5A30F0007008F10063
:1005A800F62AF7307202031CDA2ADB2AE62AFD3023
:1005B80072020318E02AE12AE62A5B30F00070088C
:1005C800F100F62AFD307202031CEB2AEC2AF62A07
:1005D800720A0319F02AF12AF62A5C30F000700832
:1005E800F100F62A710808007030831603138F048F
:1005F8000F14831603178901081488140815073087
:10060800831603138500870188018312031385016C
:100618008701860188011F083F3980389F001F1114
:10062800831603139F121F129F13831203131F14A1
:10063800203083120313A000A00B202B0000831688
:1006480003130715FA3092003F30831203139705FE
:100658001708F0390C3897000F309500CF30970500
:10066800831603138714831203131D08F0390C38FB
:100678009D000F309B009D12831603138112811178
:10068800F8308105EC30831203138100CF309005D8
:1006980090101014C0308E0063308F008C1003301F
:1006A800920412158C1C592B5A2B562B8C1083161E
:1006B800031307118710831203130C1383160313F4
:1006C8000C170B178B178B160B110C1483120313B3
:1006D8000C109F146E2B0A128A110E288312031312
:1006E8000C1F772B782BBB2B9D2B1E08F3000310B8
:1006F800730C7C3E95001F08C33904389F00B32B48
:100708001E08F3000310730C7C3E9B001F08C339BE
:1007180008389F00B32B1E080A128A111C200A12DF
:100728008A11F3007308FA00C330831203139F057C
:10073800B32B1F0CF300730C0F39F400F501750887
:10074800003A0319A82BB32B7408003A0319792B24
:10075800013A0319842B033A03198F2BB32B0D305D
:10076800F300F30BB52B831203130C139F140B1D0B
:10077800BE2BBF2BCE2B0130F3007308F907EC30EA
:1007880081000B1179087A06031DCB2BCC2BCE2BBD
:10079800F90108100C1CD12BD22BD82BC0308E009D
:1007A80063308F000C10081478088A0077088400DA
:0C07B800760E8300FE0E7E0E0900323427
:04400E00D420FF3F7C
:00000001FF
