:020000040000FA
:060000000A128A1110280B
:10000800FE00030E83120313A7000408A8000A08C1
:10001800A9000A128A1145280A128A1113280A12FD
:100028008A1168230A128A11B7000A128A116923F1
:100038000A128A11B8000A128A116A230A128A114E
:10004800B9000A128A116B230A128A11BA000A121D
:100058008A116C230A128A11BB000A128A116D23B5
:100068000A128A11BC00AD01AE01AF01B001B101A5
:10007800B201B301B401B501B60183010A128A11B4
:10008800A2290B1C48284928AA2806184C284D28BC
:100098005028AD01AD0AA928861853285428A82845
:1000A8009828AE01A928AE01AE0A3C080A128A11A6
:1000B80057230A128A118312031395003B080A1268
:1000C8008A1157230A128A11831203139B003A08D4
:1000D8000A128A1157230A128A1183120313A400E1
:1000E8002408B20039080A128A1157230A128A1101
:1000F80083120313A4002408B10038080A128A11D5
:1001080057230A128A1183120313A4002408B0008B
:1001180037080A128A1157230A128A118312031305
:10012800A4002408AF00A9282E08A400A5012508CA
:10013800003A0319A028A9282408003A03195728C7
:10014800013A03195528A92806080B100C1FAD28D9
:10015800AE2832292E08031DB228B32827290829DA
:100168001E08A4000310240C7C3E95001F08C33908
:1001780004389F0027291E08A4000310240C7C3E85
:100188009B001F08C33908389F0027291E080A1238
:100198008A1136230A128A1183120313A400240831
:1001A800B2001F08C3390C389F0027291E080A12FD
:1001B8008A1136230A128A1183120313A400240811
:1001C800B1001F08C33910389F0027291E080A12DA
:1001D8008A1136230A128A1183120313A4002408F1
:1001E800B0001F08C33914389F0027291E080A12B7
:1001F8008A1136230A128A1183120313A4002408D1
:10020800AF00C3309F0527291F0CA400240C0F3909
:10021800A500A6012608003A03191329272925084D
:10022800003A0319B428013A0319BF28033A0319FD
:10023800CA28013A0319DA28073A0319EA28013AC1
:100248000319FA2827290C3083120313A400A40BDE
:100258002B290000831203130C139F140B1D35293F
:10026800362999290B1164308100B601B501B40112
:10027800B3010814B93083120313A4004329A40B53
:10028800422946294B290130A4002408B6078312C5
:100298000313360832020318522953294729081034
:1002A8008814B93083120313A4005A29A40B5929BE
:1002B8005D2962290130A4002408B50783120313BD
:1002C80035083102031869296A295E29881008153A
:1002D800B93083120313A4007129A40B702974295F
:1002E80079290130A4002408B407831203133408C1
:1002F8003002031880298129752908118815B93019
:1003080083120313A4008829A40B87298B29902919
:100318000130A4002408B3078312031333082F0203
:100328000318972998298C29881129088A002808F0
:100338008400270E8300FE0E7E0E0900703083169F
:1003480003138F040F1483160317890108148814E4
:100358000815881508168816FF30831603138500BC
:100368000730860087018801013089008312031352
:10037800850187018601880189018316031381138A
:1003880007309500161496141615831203131F08C8
:100398003F3980389F001F11831603139F121F12C5
:1003A8009F13831203131F14203083120313AC000E
:1003B800AC0BDC290000831603130715FA309200F2
:1003C8003F308312031397051708F0390C3897004C
:1003D8000F309500CF3097058316031387148312C7
:1003E80003131D08F0390C389D000F309B009D1237
:1003F800831603138112811107308104643083123C
:10040800031381008C100330920412158C1C0D2AE2
:100418000E2A0A2A8C108316031307118710181244
:100428001815831603178715CF3083160313990001
:100438009A018312031398171813181683160313B7
:100448009816831203130C13831603130C170B1738
:100458008B178B160B118B15831203139F142D0307
:10046800031D372A382A332A3C08AC002C08AA0076
:1004780015080A128A1113230A128A118312031308
:100488003B08AC002C08AA001B080A128A11132387
:100498000A128A11831203133A08AC002C08AA0026
:1004A80032080A128A1113230A128A1183120313BB
:1004B8003908AC002C08AA0031080A128A11132343
:1004C8000A128A11831203133808AC002C08AA00F8
:1004D80030080A128A1113230A128A11831203138D
:1004E8003708AC002C08AA002F080A128A11132317
:1004F8000A128A1183120313AD01332A0A128A11D0
:10050800102883120313A101F71F8B2A8C2A932A20
:10051800F609F709F60A0319F70AA101A10AF91F52
:10052800962A972AA02AF809F909F80A0319F90A54
:100538000130FA007A08A106A201A301760877041F
:100548000319A72AA82ADF2AA001A00AB62A01307F
:100558000310F60DF70DFF3E031DAC2A0130FA001B
:100568007A08A007F71FB92ABA2AAB2A0130031064
:10057800A20DA30DFF3E031DBB2A77087902031DB8
:10058800C72A76087802031CCA2ACB2AD22A7608F8
:10059800F8027708031CF903F9022214013003104A
:1005A800F70CF60CFF3E031DD32A0130A002031DF1
:1005B800DE2ADF2ABA2A21080319E32AE42AE92ACB
:1005C800A209A309A20A0319A30A2308F70022080B
:1005D800F6000800F401F501701CF32AF42AFA2A3F
:1005E8007208F4070318F50A7308F50701300310B9
:1005F800F20DF30DFF3E031DFB2A01300310F10C31
:10060800F00CFF3E031D022B70087104031D0D2B17
:100618000E2BF02A7508F1007408F0000800831208
:100628000313AB002A08831203178D0083120313E8
:100638002B08831203178C00831603178C130C15D1
:100648008B1355308D00AA308D008C148312031340
:100658000D1E2F2B302B2A2B0D128B1783160317E9
:100668000C110800FD00FF30F6000030F7007D088F
:10067800FB00FC017B08F0007C08F100AE30F200C2
:100688000030F3000A128A11EE220A128A11710848
:10069800F9007008F8000A128A1185220A128A11D4
:1006A8007608503E0800F1007108831203178D0088
:1006B800831603178C130C14831203170C08F0000D
:1006C8007008F20072080800093408340734063448
:0406D80005340434AD
:04400E00D420FF3F7C
:00000001FF
