:020000040000FA
:060000000A128A1110280B
:10000800FE00030E83120313A7000408A8000A08C1
:10001800A9000A128A1121280A128A1113288312A8
:100028000313AB01AC01AD01AE01AF01B001B101E9
:10003800B20183010A128A1114290C1F24282528C9
:10004800A4287A281E08A4000310240C7C3E9500DE
:100058001F08C33904389F0099281E08A4000310FC
:10006800240C7C3E9B001F08C33908389F00992840
:100078001E080A128A111D220A128A1183120313FA
:10008800A4002408AE001F08C3390C389F00992823
:100098001E080A128A111D220A128A1183120313DA
:1000A800A4002408AD001F08C33910389F00992800
:1000B8001E080A128A111D220A128A1183120313BA
:1000C800A4002408AC001F08C33914389F009928DD
:1000D8001E080A128A111D220A128A11831203139A
:1000E800A4002408AB00C3309F0599281F0CA40066
:1000F800240C0F39A500A6012608003A0319852803
:1001080099282508003A03192628013A03193128A5
:10011800033A03193C28013A03194C28073A0319F2
:100128005C28013A03196C2899280C3083120313B0
:10013800A400A40B9D280000831203130C139F1422
:100148000B1DA728A8280B290B1164308100B201C8
:10015800B101B001AF010814B93083120313A40030
:10016800B528A40BB428B828BD280130A400240859
:10017800B2078312031332082E020318C428C528B5
:10018800B92808108814B93083120313A400CC28A6
:10019800A40BCB28CF28D4280130A4002408B10709
:1001A8008312031331082D020318DB28DC28D0281A
:1001B80088100815B93083120313A400E328A40B90
:1001C800E228E628EB280130A4002408B0078312AF
:1001D800031330082C020318F228F328E728081123
:1001E8008815B93083120313A400FA28A40BF92840
:1001F800FD2802290130A4002408AF078312031345
:100208002F082B02031809290A29FE288811290812
:100218008A0028088400270E8300FE0E7E0E09003F
:10022800831603130F168F160F1701148114011567
:1002380081128111A8308B0064308312031381006E
:10024800831603130C17831203130C13831603135B
:100258009F131F121F12831203131F139F171F14BC
:10026800203083120313AA00AA0B38290000831236
:1002780003139F143F308316031788008901FF304A
:1002880083160313850087018801013089008312D2
:1002980003138501860187018801890183160313E9
:1002A8000715FA3092003F30831203139705170899
:1002B800F0390C3897000F309500CF30970583162A
:1002C80003138714831203131D08F0390C389D009B
:1002D8000F309B009D128C100330920412158C1C59
:1002E8007629772973298C10831603130711871031
:1002F800831203130C13831603130C170B178B1796
:100308008B160B110C14831203130C109F148B29DA
:100318000A128A11102883120313A101F71F9529C5
:1003280096299D29F609F709F60A0319F70AA10182
:10033800A10AF91FA029A129AA29F809F909F80A87
:100348000319F90A0130FA007A08A106A201A301EB
:10035800760877040319B129B229E929A001A00A6E
:10036800C02901300310F60DF70DFF3E031DB62915
:100378000130FA007A08A007F71FC329C429B52954
:1003880001300310A20DA30DFF3E031DC5297708F8
:100398007902031DD12976087802031CD429D529AE
:1003A800DC297608F8027708031CF903F9022214FD
:1003B80001300310F70CF60CFF3E031DDD29013058
:1003C800A002031DE829E929C42921080319ED29F8
:1003D800EE29F329A209A309A20A0319A30A2308EB
:1003E800F7002208F6000800F401F501701CFD2949
:1003F800FE29042A7208F4070318F50A7308F5079A
:1004080001300310F20DF30DFF3E031D052A0130E4
:100418000310F10CF00CFF3E031D0C2A7008710448
:10042800031D172A182AFA297508F1007408F00024
:100438000800FD00FF30F6000030F7007D08FB00E3
:10044800FC017B08F0007C08F100AE30F2000030BF
:10045800F3000A128A11F8210A128A117108F900A8
:100468007008F8000A128A118F210A128A11760878
:04047800503E0800EA
:04400E00D420FF3F7C
:00000001FF
