:020000040000FA
:060000000A128A110E280D
:10000800FE00030EF6000408F7000A08F8000A12BA
:100018008A1123280A128A111128F901FA01FB0111
:10002800FC01FD0183120313A001A101A201A30198
:10003800A401A501A60183010A128A11E3298312EA
:1000480003130C1F28282928B3288C281E08F3001E
:100058000310730C7C3E95001F08C33904389F00B9
:10006800AB281E08F3000310730C7C3E9B001F088E
:10007800C33908389F00AB281E08F3000310730C1F
:100088000A128A1120210A128A11F4007408FD004C
:10009800831203131F08C3390C389F001E088600FB
:1000A800AB281E08F3000310730C0A128A112021D2
:1000B8000A128A11F4007408FC00831203131F0843
:1000C800C33910389F00AB281E08F3000310730CC7
:1000D8000A128A1120210A128A11F4007408FB00FE
:1000E800831203131F08C33914389F00AB281E0856
:1000F800F3000310730C0A128A1120210A128A11C4
:10010800F4007408FA00C330831203139F05AB2868
:100118001F0CF300730C0F39F400F5017508003A51
:1001280003199728AB287408003A03192A28013ABA
:1001380003193528033A03194028013A03195528A9
:10014800073A03196828013A03197B28AB2821309C
:10015800F300F30BAD28831203130C139F140B1D2C
:10016800B628B7280229EA30810079087D06031DE0
:10017800BE28BF28C2280810A301F90126087C065A
:10018800031DC728C828CB288810A201A601250866
:100198007B06031DD028D128D4280811A101A50168
:1001A80024087A06031DD928DA28DD288811A00139
:1001B800A4012303031DE128E228E6280130F30007
:1001C8007308F9072203031DEA28EB28EF280130FA
:1001D800F3007308A6072103031DF328F428F82861
:1001E8000130F3007308A5072003031DFC28FD2830
:1001F80001290130F3007308A4070B110C1C052911
:1002080006291729C0308E0063308F00A301A30A86
:10021800A201A20AA101A10AA001A00A0814881437
:10022800081588150C1078088A0077088400760E5F
:100238008300FE0E7E0E0900F200143072020318CD
:10024800262927292C290230F0007008F100E1291D
:1002580014307202031C312932293D2929307202D7
:100268000318372938293D290330F0007008F100B8
:10027800E12929307202031C422943294E293E30C4
:1002880072020318482949294E290530F0007008E0
:10029800F100E1293E307202031C532954295F29D9
:1002A80053307202031859295A295F290630F00081
:1002B8007008F100E12953307202031C6429652992
:1002C80070296830720203186A296B29702907306F
:1002D800F0007008F100E12968307202031C7529EA
:1002E800762981298430720203187B297C29812987
:1002F8000830F0007008F100E12984307202031C14
:100308008629872992299930720203188C298D2908
:1003180092290930F0007008F100E1299930720241
:10032800031C97299829A329AE30720203189D2926
:100338009E29A3290A30F0007008F100E129AE30A7
:100348007202031CA829A929B429C3307202031810
:10035800AE29AF29B4290B30F0007008F100E1296B
:10036800C3307202031CB929BA29C529D8307202D0
:100378000318BF29C029C5290C30F0007008F10006
:10038800E129D7307202031CCA29CB29D629ED30BE
:1003980072020318D029D129D6290E30F00070082E
:1003A800F100E129ED307202031CDB29DC29E12987
:1003B8000F30F0007008F100E12971080800703072
:1003C800831603138F040F14831603178901081467
:1003D800881408158815081688167F3083160313A5
:1003E8008500860187018801013089008312031383
:1003F80085018601870188018901F901A601A50106
:10040800A401FD01FC01FB01FA011F083F398038F6
:100418009F001F11831603139F121F129F1383122D
:1004280003131F14203083120313A700A70B1A2AE3
:100438000000831603130715FA3092003F30831229
:10044800031397051708F0390C3897000F309500FB
:10045800CF309705831603138714831203131D08DF
:10046800F0390C389D000F309B009D128316031342
:1004780081128111F8308105EA308312031381005B
:100488000B11C0308E0063308F00CF309005901074
:1004980010140C108C100330920412158C1C552A61
:1004A800562A522A8C1083160313071187108B16AD
:1004B8000C14831203130C13831603130C170B1756
:1004C8008B17831203139F14682A0A128A110E28A5
:04400E00D420FF3F7C
:00000001FF
