:060000000A128A11142906
:10000800F000030EF1000B1821210B192921710EA4
:080018008300F00E700E0900D8
:100200008A010A140F3982073F3406345B344F34B5
:1002100066346D347D3407347F346F3477347C3406
:1002200039345E34793471347F2186219A21B221A8
:10023000A321201455215C21A601A701A50163215A
:100240001A2903138312061C850A861C85030B10CA
:10025000080003138312AE21860120183D29A0183F
:10026000372920194329A0194929201A4F29240880
:1002700087000615A01020150800230887008615A2
:100280002010A01408002808880006162011A015C8
:100290000800290888008616A011201608002A08E0
:1002A0008800061720142012080005080F39A10045
:1002B000050E0F39A200080021080021A300220822
:1002C0000021A400080003100508A5006430A60A58
:1002D000A50203186729A603A50726080021A80080
:1002E00003100A30A70AA50203187229A703A5075D
:1002F00027080021A90025080021AA0008000313EF
:1003000083160F178F120F120F140800031783168E
:100310008901880103138316033086008501870154
:100320008801811315149514031383128501870125
:1003300088010800031383161614961403138312FE
:1003400006080B1008000313831681128111011196
:100350008110011403138312AE2108007D30810047
:0E0360000B1108008B178B150B108B16080065
:04400E00C430FF3F7C
:00000001FF
