:020000040000FA
:060000000A128A110C280F
:10000800FE00030EF0000A08F1000A128A116228A5
:100018000A128A110F280A128A1171200A128A11EB
:10002800F40083010A128A111928831603130F0892
:100038008F3940388F000F14831603178901880100
:100048008316031385018601831203138501860134
:1000580083160313181218158316031787151930FA
:100068008316031399009A01831203139817181320
:100078001816831603139816831203138C1283160B
:1000880003138C16831203130C13831603130C1714
:100098000B178B17A330F3005530F200F20B5228E0
:1000A800F30B5228831203130C1E5B285C284E287E
:1000B800673099004E280A128A110C2883120313FC
:1000C8008C1E672868286A281A08860071088A0022
:0C00D800700E8300FE0E7E0E09006734DF
:04400E00C430FF3F7C
:00000001FF
