:020000040000FA
:060000000A128A110C280F
:10000800FE00030EF2000A08F3000A128A1168289B
:100018000A128A110F2883010A128A1113287030D4
:10002800831603138F040F1483160317890108140A
:100038008814033083160313850087018312031382
:1000480085018701831603139F131F129F128312C2
:1000580003131F083F3980389F001F111F142130D8
:10006800F400F40B3528831603130715F9309200B2
:100078003F308312031397051708F0390C3897009F
:100088000F309500CF3097058C100330920412156D
:100098008C1C4F2850284C288C10831603130711EA
:1000A800831203130C13831603130C170B178B17E8
:1000B800831203139F149F18622863285F289F14D4
:1000C8005F280A128A110C28831203130C1F6D284B
:1000D8006E28AC281F0CF000700C0F39003A031D75
:1000E80076287728A0281E08F0000310700C803EA0
:1000F80095001E080139F000F00EF00D1708700683
:10010800DF3970069700831603131E08F0000730C6
:100118000310F00CFF3E031D8C287008F100F10E4F
:100128008312031317087106EF39710697001F0829
:10013800C33904389F00A4281E088800C3309F05CF
:100148002130F000F00BA628831203130C139F1420
:0E01580073088A00720E8300FE0E7E0E0900F0
:04400E00C430FF3F7C
:00000001FF
