:060000000A128A11142906
:10000800F000030EF1000B185C210B1966210C1887
:10001800AA218C180322710E8300F00E700E0900BD
:100200008A010A140F3982073F3406345B344F34B5
:1002100066346D347D3407347F346F3477347C3406
:1002200039345E34793471341B2322233C23752303
:1002300046235123592320140A30B700B800B900CF
:10024000C8220030BB000130BC00BD00C400C501A5
:100250002118292259220311401C3B2906302E0265
:10026000031D33294514031103302E02031D3B29BE
:100270004510871407110311C01C4B2906302F02AB
:10028000031D4329C514031103302F02031D4B29FD
:10029000C510071687120311401D5B290630300276
:1002A000031D53294515031103303002031D5B293B
:1002B000451187170910282903138312061C2114DE
:1002C000861CA114061D21150B10080003138312B0
:1002D0006923880120187A29A018802920198629E5
:1002E000A0198C29201A9229A01A9829201B9E292E
:1002F000A01BA4292708850008142010A0140800BA
:10030000260885008814A0102015080028088500FC
:1003100008152011A01508002B0885008815A011CC
:10032000201608002908850008162012A0160800CB
:100330002C0885008816A012201708002A088500BE
:1003400008172013A01708002D0885008817A01390
:1003500020140800031383126D23AE030311003031
:100360002E02031DB929BB0A3B18DF213B1CF121DA
:10037000AE00AF03031100302F02031DC529BC0AD4
:100380003C18E5213C1CF721AF00B00303110030FD
:100390003002031DD129BD0A3D18EB213D1CFD2172
:1003A000B00003113E1CDE2934083F02031DDA2988
:1003B000BF0ADE2934083607B2003E1008003108B3
:1003C000071487100711401008003208871507121C
:1003D0008712C0100800330807178713091040114F
:1003E0000800340807108710071540140800350866
:1003F000871107128716C0140800360807138713E1
:1004000009144015080003138312C40A451C092A65
:10041000112AC51C0C2A162A451D0F2A1B2A8C10CE
:1004200008004418202A07118C1008004418232AB9
:1004300087128C1008004418262A09108C10080016
:1004400007158C10080087168C10080009148C10F2
:10045000080003138312A20A031105302202031DB0
:10046000332A0030A2002110080003138312A30ACC
:10047000031115302302031D3F2A0A30A300A110E7
:10048000080003138312A303031109302302031D81
:100490004B2A1430A30021110800A501A401031068
:1004A000A4000A30A50AA4020318522AA503A4072F
:1004B00008000313831203110030220203199E2245
:1004C0000311013022020319A72203110230220274
:1004D0000319AD220311033022020319B4220311C0
:1004E000043022020319BC2208002E084D222508E0
:1004F0000021A80024080021AB002F084D22250868
:100500000021A90024080021AC0030084D22250854
:100510000021AA0024080021AD000800A300A118B2
:100520003522211941222308BA004D222508002135
:10053000A70024080021A6007522080086110612D3
:100540008612A1102111A701A601752208008615A7
:1005500037088E223A08B7000800861106163808B8
:100560008E223A08B800080086110612861639084D
:100570008E223A08B9000800861506167730A700C3
:100580003930A6007522A118C82A2119032B0800AA
:100590003E30A600A7007B30AB00AC000130AD00C0
:1005A0003130A8006D30A9000730AA00DF21E52115
:1005B000EB210A233E143708B400AE00B200AF00AE
:1005C0003808B5003908B60035083607B1003408D8
:1005D0003507B300B0000030A2000A30B700B80001
:1005E000B9000710871007154014871507128712E6
:1005F000C01007178713091040110030BB000130ED
:10060000BC00BD0008000A30B700B800B9000030D7
:10061000A2000800C630C1001023C10B0C2B08003B
:10062000F830C2001623C20B132B0800C830C300D9
:10063000C30B182B0800031383160F178F120F120A
:100640000F1408000317831689018801031383160A
:1006500007308600850187018801890181131514FF
:10066000951415150313831285018611061286123F
:100670008701880189010800031383161614961454
:1006800016150313831206080B10080003138316B4
:100690008112811101118110011403138312692346
:1006A00008000313831290161012901010146D237B
:1006B00008000313831212151217921612169215C0
:1006C000921403138316F4309200031383128C10D8
:1006D00008007D3081000B11080003138312DC3009
:1006E0008E000B308F000C1008008B178B150B1031
:0C06F0008B160C100C140B178C14080057
:04400E00C430FF3F7C
:00000001FF
