:060000000A128A11142906
:10000800F000030EF1000B1839210B1943210C18CD
:0C0018008721710E8300F00E700E0900AD
:100200008A010A140F3982073F3406345B344F34B5
:1002100066346D347D3407347F346F3477347C3406
:1002200039345E347934713467226E228622AF22EB
:1002300090229B2220140A30AE000A30AF000C300E
:10024000B0000A30B700B800B900B400B500B6007D
:100250000B30B1000A30B2000C30B3000030A20005
:100260000130BB000030BC00BD002118AF21DF21F0
:10027000352903138312061C2114861CA114061DA4
:1002800021150B10080003138312A32288012018E4
:100290005729A0185D2920196329A0196929201A56
:1002A0006F29A01A7529201B7B29A01B81292708EB
:1002B000850008142010A014080026088500881462
:1002C000A010201508002808850008152011A01589
:1002D00008002B0885008815A011201608002908A1
:1002E000850008162012A01608002C088500881624
:1002F000A012201708002A08850008172013A0174D
:1003000008002D0885008817A01320140800031387
:100310008312A722AE030311FF302E02031D96297C
:10032000BB0A3B1831083B1C3408AE00AF03031175
:10033000FF302F02031DA229BC0A3C1832083C1CC6
:100340003508AF00B0030311FF303002031DAE29A2
:10035000BD0A3D1833083D1C3608B00008000313E1
:100360008312A20A031105302202031DB9290030AD
:10037000A2002110080003138312A30A03111530F1
:100380002302031DC5290A30A300A110080003138E
:100390008312A303031109302302031DD129143052
:1003A000A30021110800A501A4010310A4000A3034
:1003B000A50AA4020318D829A503A407080003135B
:1003C0008312031100302202031924220311013089
:1003D000220203192D2203110230220203193322B3
:1003E00003110330220203193A22031104302202BE
:1003F0000319422208002E08D32125080021A80055
:1004000024080021AB002F08D32125080021A900D2
:1004100024080021AC003008D32125080021AA00BF
:1004200024080021AD000800A300A118BB21211958
:10043000C7212308BA00D32125080021A7002408DA
:100440000021A600FB210800861106128612A110C9
:100450002111A701A601FB210800861537081422E7
:100460003A08B700080086110616380814223A0820
:10047000B8000800861106128616390814223A08B8
:10048000B9000800861506167730A7003930A60097
:10049000FB21A1184E222119602208003708B40060
:1004A0003808B5003908B60035083607310836086F
:1004B000340732083408350733080030A20008003A
:1004C0000A30B700B800B9000030A20008000313DA
:1004D00083160F178F120F120F14080003178316BD
:1004E000890188010313831607308600850187017F
:1004F00088018113151495141515031383128501B2
:1005000086110612861287018801080003138316DC
:100510001614961416150313831206080B10080000
:100520000313831681128111011181100114031329
:100530008312A32208000313831290161012901046
:100540001014A72208007D3081000B11080003134E
:100550008312DC308E000B308F000C1008008B17DC
:0E0560008B150B108B160C100C140B170800CB
:04400E00C430FF3F7C
:00000001FF
