:060000000A128A11142906
:10000800F000030EF1000B182B210B1935210C18E9
:0C0018007921710E8300F00E700E0900BB
:100200008A010A140F3982073F3406345B344F34B5
:1002100066346D347D3407347F346F3477347C3406
:1002200039345E34793471344D2254226C22952253
:100230007622812220140A30B6000A30B7000A3034
:10024000B8000A30B9000A30A5000030A400231815
:100250009521C521272903138312061C2314861C0C
:10026000A314061D23150B10080003138312892203
:10027000880120184929A0184F2920195529A019AB
:100280005B29201A6129A01A6729201B6D29A01B50
:1002900073292E08850008142010A01408002F08C8
:1002A00085008814A0102015080030088500081566
:1002B0002011A0150800330885008815A01120160C
:1002C00008003108850008162012A016080034081E
:1002D00085008816A012201708003208850008172C
:1002E0002013A0170800350885008817A0132014D4
:1002F0000800031383128D22B6030311FF30360268
:10030000031D84291430B600B7030311FF303702F0
:10031000031D8C291430B700B8030311FF303802D5
:10032000031D94291430B800080003138312A40A93
:10033000031105302402031D9F290030A40023105F
:10034000080003138312A50A031115302502031DAB
:10035000AB290A30A500A310080003138312A503DC
:10036000031109302502031DB7291430A5002311FC
:100370000800AA01A8010310A8000A30AA0AA802CE
:100380000318BE29AA03A807080003138312031148
:10039000003024020319E121031101302402031962
:1003A0000C2203110230240203192022031103300E
:1003B00024020319352203110430240203194B22AD
:1003C00008003608B9212A080021B00028080021B9
:1003D000B3003708B9212A080021B10028080021FC
:1003E000B4003808B9212A080021B20028080021E9
:1003F000B500031103303602031D082A07118714C4
:100400000311FF303602031D082A07118710071455
:100410000A2A07150311080086153908A318A12117
:100420002508B900B9212319AD212508B900B92142
:100430002A080021AE0028080021AF00E1210800B1
:10044000861106163908A318A1212508B900B9217B
:100450002319AD212508B900B9212A080021AE00D1
:1004600028080021AF00E121080086110612861637
:100470003908A318A1212508B900B9212319AD21F4
:100480002508B900B9212A080021AE00280800215A
:10049000AF00E121080085010800031383160F1740
:1004A0008F120F120F140800031783168901880199
:1004B00003138316073086008501870188018113A5
:1004C0001514951415150313831285018611061250
:1004D00086128701880108000313831616149614E8
:1004E00016150313831206080B1008000313831656
:1004F00081128111011181100114031383128922C9
:1005000008000313831290161012901010148D22FD
:1005100008007D3081000B11080003138312DC30CA
:100520008E000B308F000C1008008B178B150B10F2
:0A0530008B160C100C140B170800BA
:04400E00C430FF3F7C
:00000001FF
