:060000000A128A11142906
:10000800F000030EF1000B1827210B1931210C18F1
:0C0018007521710E8300F00E700E0900BF
:100200008A010A140F3982073F3406345B344F34B5
:1002100066346D347D3407347F346F3477347C3406
:1002200039345E3479347134B721BE21D621FF21AF
:10023000E021EB2120140A30A500AA01A801A62183
:1002400023188221A3188E2123199A211D29031313
:100250008312061C2314861CA314061D23150B10E1
:10026000080003138312F321850120184529A018E3
:100270004B2920195129A0195729201A5D29A01AA4
:100280006329201B6929A01B6F292C0885000814ED
:100290002010A01408002D0885008814A010201537
:1002A00008002C08850008152011A01508002D084D
:1002B00085008815A011201608002C088500081656
:1002C0002012A01608002D0885008816A0122017FD
:1002D00008002C08850008172013A01708002D0817
:1002E00085008817A0132014080003138312F72138
:1002F000A503031109302502031D80291430A50030
:10030000A310080003138312A40A0311053024026A
:10031000031D8C290030A40023100800031383124E
:10032000A50A031115302502031D98290A30A500DE
:10033000A310080003138312A5030311093025023B
:10034000031DA4291430A50023110800031025085B
:10035000A8000A30AA0AA8020318AA29AA03A80713
:100360002A080021AC0028080021AD000800031372
:1003700083160F178F120F120F140800031783161E
:1003800089018801031383160730860085018701E0
:100390008801811315149514151503138312850113
:1003A000861106128612870188010800031383163E
:1003B0001614961416150313831206080B10080062
:1003C000031383168112811101118110011403138B
:1003D0008312F32108000313831290161012901059
:1003E0001014F72108007D3081000B110800031361
:1003F0008312DC308E000B308F000C1008008B173E
:0E0400008B150B108B160C100C140B1708002C
:04400E00C430FF3F7C
:00000001FF
