:020000040000FA
:060000000A128A110C280F
:10000800FE00030EF0000A08F1000A128A117E2C85
:100018000A128A110F28F40183010A128A11282C66
:10002800831203130C1E19281A288E2A513099009E
:1000380075309900F930F2002128F20B2028242885
:100048002528653083120313990020309900F93070
:10005800F2002E28F20B2D28312832286130831225
:100068000313990063309900F930F2003B28F20B32
:100078003A283E283F2863308312031399006930D9
:100088009900F930F2004828F20B47284B284C28F1
:100098006F308312031399006E309900F930F20023
:1000A8005528F20B54285828592820308312031356
:1000B800990064309900F930F2006228F20B612847
:1000C80065286628653083120313990073309900F8
:1000D800F930F2006F28F20B6E2872287328653009
:1000E80083120313990061309900F930F2007C28DB
:1000F800F20B7B287F288028203083120313990075
:1001080065309900F930F2008928F20B88288C288C
:100118008D286A3083120313990065309900F930ED
:10012800F2009628F20B952899289A2863308312B2
:100138000313990075309900F930F200A328F20BE7
:10014800A228A628A72874308312031399006130C7
:100158009900F930F200B028F20BAF28B328B42880
:1001680072308312031399003F309900F930F2007E
:10017800BD28F20BBC28C028C1280D3083120313F8
:10018800990028309900F930F200CA28F20BC928E2
:10019800CD28CE28313083120313990029309900D5
:1001A800F930F200D728F20BD628DA28DB282030DD
:1001B80083120313990044309900F930F200E428BF
:1001C800F20BE328E728E828653083120313990027
:1001D80073309900F930F200F128F20BF028F42876
:1001E800F52870308312031399006C309900F930A8
:1001F800F200FE28F20BFD2801290229653083123E
:100208000313990067309900F930F2000B29F20BBB
:100218000A290E290F2961308312031399007230BD
:100228009900F930F2001829F20B17291B291C290B
:10023800203083120313990063309900F930F200DB
:100248002529F20B2429282929296130831203132F
:10025800990064309900F930F2003229F20B312903
:100268003529362965308312031399006E309900B9
:10027800F930F2003F29F20B3E2942294329613027
:1002880083120313990020309900F930F2004C29A9
:10029800F20B4B294F29502964308312031399001C
:1002A80065309900F930F2005929F20B58295C2978
:1002B8005D29203083120313990063309900F930C7
:1002C800F2006629F20B652969296A2961308312CF
:1002D8000313990072309900F930F2007329F20B78
:1002E80072297629772961308312031399006330C4
:1002F8009900F930F2008029F20B7F29832984299B
:10030800743083120313990065309900F930F200B4
:100318008D29F20B8C2990299129723083120313AD
:10032800990065309900F930F2009A29F20B992961
:100338009D299E2973308312031399000D3099006B
:10034800F930F200A729F20BA629AA29AB292830EF
:1003580083120313990032309900F930F200B4295E
:10036800F20BB329B729B82929308312031399004E
:1003780020309900F930F200C129F20BC029C429B4
:10038800C529433083120313990061309900F9306D
:10039800F200CE29F20BCD29D129D2296D30831252
:1003A8000313990062309900F930F200DB29F20B4F
:1003B800DA29DE29DF2969308312031399006130B5
:1003C8009900F930F200E829F20BE729EB29EC292A
:1003D800723083120313990020309900F930F2002B
:1003E800F529F20BF429F829F9295030831203135F
:1003F80099004F309900F930F200022AF20B012AD5
:10040800052A062A523083120313990054309900A2
:10041800F930F2000F2AF20B0E2A122A132A413061
:100428008312031399000D309900F930F2001C2A49
:10043800F20B1B2A1F2A202A283083120313990043
:1004480033309900F930F200292AF20B282A2C2A95
:100458002D2A293083120313990020309900F9308E
:10046800F200362AF20B352A392A3A2A4330831207
:100478000313990061309900F930F200432AF20B16
:10048800422A462A472A6D308312031399006230A4
:100498009900F930F200502AF20B4F2A532A542AB5
:1004A800693083120313990061309900F930F20022
:1004B8005D2AF20B5C2A602A612A723083120313C8
:1004C800990020309900F930F2006A2AF20B692A63
:1004D8006D2A6E2A50308312031399004F30990009
:1004E800F930F200772AF20B762A7A2A7B2A5230E0
:1004F80083120313990054309900F930F200842ACA
:10050800F20B832A872A882A423083120313990020
:100518000D3099000800831203130C1E942A952AA3
:100528008D2B99014C309900F930F2009B2AF20B7F
:100538009A2A9E2A9F2A6130831203139900203039
:100548009900F930F200A82AF20BA72AAB2AAC2AA4
:1005580063308312031399006F309900F930F20069
:10056800B52AF20BB42AB82AB92A6D3083120313BC
:10057800990069309900F930F200C22AF20BC12AB9
:10058800C52AC62A64308312031399006130990082
:10059800F930F200CF2AF20BCE2AD22AD32A203001
:1005A80083120313990073309900F930F200DC2AA2
:1005B800F20BDB2ADF2AE02A613083120313990049
:1005C80062309900F930F200E92AF20BE82AEC2AA5
:1005D800ED2A653083120313990020309900F93011
:1005E800F200F62AF20BF52AF92AFA2A6130831268
:1005F8000313990020309900F930F200032BF20B15
:10060800022B062B072B63308312031399006F30DC
:100618009900F930F200102BF20B0F2B132B142B2F
:100628006D3083120313990069309900F930F20094
:100638001D2BF20B1C2B202B212B64308312031350
:10064800990061309900F930F2002A2BF20B292B1E
:100658002D2B2E2B2E308312031399000D30990069
:10066800F930F200372BF20B362B3A2B3B2B2D307F
:1006780083120313990061309900F930F200442B7A
:10068800F20B432B472B482B73308312031399002B
:1006980069309900F930F200512BF20B502B542B92
:1006A800552B743083120313990074309900F93074
:1006B800F2005E2BF20B5D2B612B622B69308312EB
:1006C800031399006E309900F930F2006B2BF20B8E
:1006D8006A2B6E2B6F2B67308312031399006630D9
:1006E8009900F930F200782BF20B772B7B2B7C2BBF
:1006F80072308312031399006F309900F930F200B9
:10070800852BF20B842B882B892B673083120313DC
:1007180099000800831203130C1E932B942B272C8B
:10072800493099006E309900F930F2009B2BF20B9A
:100738009A2B9E2B9F2B67308312031399007230DC
:100748009900F930F200A82BF20BA72BAB2BAC2B9E
:10075800653083120313990073309900F930F20061
:10076800B52BF20BB42BB82BB92B653083120313BE
:10077800990020309900F930F200C22BF20BC12BFE
:10078800C52BC62B6E308312031399007530990060
:10079800F930F200CF2BF20BCE2BD22BD32B6530B6
:1007A80083120313990076309900F930F200DC2B9C
:1007B800F20BDB2BDF2BE02B6F3083120313990036
:1007C80020309900F930F200E92BF20BE82BEC2BE2
:1007D800ED2B633083120313990061309900F930CF
:1007E800F200F62BF20BF52BF92BFA2B7230831251
:1007F8000313990061309900F930F200032CF20BD1
:10080800022C062C072C63308312031399007430D2
:100818009900F930F200102CF20B0F2C132C142C29
:10082800653083120313990072309900F930F20091
:100838001D2CF20B1C2C202C212C3A308312031374
:1008480099000D3099000800831603130F088F399B
:1008580040388F000F148316031789018801831607
:10086800031385018601831203138501860183160C
:1008780003131812181583160317871519308316D2
:10088800031399009A018312031398171813181663
:10089800831603139816831203138C1283160313FB
:1008A8008C16831203130C13831603130C170B17E0
:1008B8008B170A128A1114200A128A11F930F300D0
:1008C800652CF30B642C682C692C0A128A118E2370
:1008D8000A128A11F930F300712CF30B702C742C66
:1008E800752C0A128A118F220A128A117A2C0A127E
:1008F8008A110C28831203130C0871088A00700EE1
:080908008300FE0E7E0E0900C3
:04400E00C430FF3F7C
:00000001FF
